:10000000F5EF00F00000000000EF00F0000000003D
:0A0010000000000000000000F3D71C
:06001C00000000001200CC
:100022000F0E0C6E470E0D6E0D2EFED70C2EFCD74A
:06003200000000001200B6
:0A003800210E0D6E0D2EFED71200F2
:1000420043BE02D0819E01D0818E43BC02D0819CEE
:1000520001D0818C43BA02D0819A01D0818A43B8FF
:1000620002D0819801D081883AB002D0818001D03B
:1000720081908182D2DF819243B602D0819E01D0EB
:10008200818E43B402D0819C01D0818C43B202D0D4
:10009200819A01D0818A43B002D0819801D08188AF
:1000A2003AB002D0818001D081908182B6DF819204
:0C00B2003AA002D0B5DF01D0BEDF120082
:0C00BE003A9042C043F0BEDF3A801200CE
:1000CA000900F5CFE6FF0006FBE10106F9E112009F
:1000DA00939293909398939A939C939E81928190F2
:1000EA00819E819C819A819897DF96DF95DF818A2C
:1000FA00818881828EDF81928FDF81828ADF81927D
:10010A008BDF818286DF819287DF8198818281DF1E
:10011A00819282DF81827DDF8192819A818E8182C2
:10012A0078DF819279DF819E8188818272DF819274
:10013A00819881826EDF81926FDF81826ADF81928C
:10014A008188818266DF819267DF8198818261DF9F
:10015A008192818E818C818A818881825ADF819203
:06016A005BDF3A80120089
:100170000FD0800E3D6E19D0C00E3D6E16D0940E7D
:100180003D6E13D0D40E3D6E10D0800E3D6E0DD05E
:100190003D50010AEEE03D50020AEEE03D50030AF8
:1001A000EEE03D50040AEEE0F0D73E04006E3D5014
:1001B000002600C03DF000C043F043DF3A90416AA2
:1001C00041503F24E96E000E4020EA6EEE520BE0F3
:1001D00041503F24E96E000E4020EA6EEECF42F01F
:0A01E0006EDF412AEDD73A801200CD
:1001EA0056EC01F075DF0C0E436E26DF010E436EEE
:1001FA0023DF2A0E3B6E000E3C6E010E3D6E010E91
:10020A003E6E3BC03FF03CC040F0ADDF0B0E0B6EC4
:10021A00260E0C6E5D0E0D6E0D2EFED70C2EFCD723
:10022A000B2EFAD7000000001F0E3B6E000E3C6E2C
:10023A00020E3D6E010E3E6E3BC03FF03CC040F0E8
:10024A0092DF0B0E0B6E260E0C6E5D0E0D6E0D2ED2
:10025A00FED70C2EFCD70B2EFAD700000000150E85
:10026A003B6E000E3C6E020E3D6E010E3E6E3BC0B2
:0C027A003FF03CC040F077DFFFD7FFD71B
:1002AC0010EE15F0250E006E010E016E860EF66E28
:0E02BC00020EF76E000EF86E65EC00F01200F8
:0A028600202020202020202020004E
:0B02900050494331384634353530000A
:10029B004C434420496E746572666163696E6700F6
:020000040030CA
:0E000000000C1F1EFF8181FF0FC00FE00F409C
:00000001FF
